:060000000A128A11FC2F18
:100F78008316031306100714F501F60175300A12DB
:100F88008A11CC270A128A11C22F0A128A11002844
:100F9800F400831203130718D22FD32FEB2F7408F2
:100FA80084000008F000840A0008F1007008710449
:100FB8000319DF2FE12F0130E22F0030F200F30197
:100FC8007408840072088000840A7308800074081A
:100FD80084000008F000840A0008F100700371041E
:100FE800031DF72FF82FFA2F0614FB2F0610080001
:080FF80083010A128A11BC2FCB
:00000001FF
