:060000000A128A11FC2F18
:100E7C00700884008317711C83138001080083168B
:100E8C000313860187018801890185010800700818
:100E9C0084008317711C8313FF308000080000301E
:100EAC0083120313A1000630A0000030A30007300A
:100EBC00A2000030A5000830A4000030A7000930C3
:100ECC00A6000030A9000530A8000A128A11452797
:100EDC000A128A11831203132008F0002108F10072
:100EEC000A128A114D270A128A118312031322083F
:100EFC00F0002308F1000A128A114D270A128A11F8
:100F0C00831203132408F0002508F1000A128A1139
:100F1C004D270A128A11831203132608F0002708A2
:100F2C00F1000A128A114D270A128A118312031337
:100F3C002808F0002908F1000A128A114D270A121C
:100F4C008A110D30F400AF30F300B630F200F20B22
:100F5C00AD2FF30BAD2FF40BAD2F00008312031349
:100F6C002008F0002108F1000A128A113E270A120B
:100F7C008A11831203132208F0002308F1000A12CD
:100F8C008A113E270A128A11831203132408F000D7
:100F9C002508F1000A128A113E270A128A118312BF
:100FAC0003132608F0002708F1000A128A113E27C5
:100FBC000A128A11831203132808F0002908F10081
:100FCC000A128A113E270A128A110330F4008A3061
:100FDC00F3005530F200F20BF12FF30BF12FF40B61
:100FEC00F12FF82F702F0A128A11002883010A1290
:040FFC008A11552FD2
:00000001FF
