:060000000A128A11FC2F18
:100E8E00700884008317711C83138001080070089A
:100E9E0084008317711C8313FF30800008008316B3
:100EAE0003138601870188018901103085008113A3
:100EBE00080083120313051E652F672F0130682F5C
:100ECE000030F200F3017208F0007308F100080020
:100EDE00003083120313A1000630A0000030A300DF
:100EEE000730A2000030A5000830A4000030A70093
:100EFE000930A60005080A128A1156270A128A110D
:100F0E000A128A1160270A128A11700871040319D5
:100F1E00912F922FCC2F831203132008F00021085B
:100F2E00F1000A128A114E270A128A118312031334
:100F3E002208F0002308F1000A128A114E270A1225
:100F4E008A11831203132408F0002508F1000A12F7
:100F5E008A114E270A128A11831203132608F000F3
:100F6E002708F1000A128A114E270A128A110D3033
:100F7E00F600AF30F500B630F400F40BC42FF50BCD
:100F8E00C42FF60BC42F0000872F831203132008E3
:100F9E00F0002108F1000A128A1147270A128A115D
:100FAE00831203132208F0002308F1000A128A119B
:100FBE0047270A128A11831203132408F00025080A
:100FCE00F1000A128A1147270A128A11831203139B
:100FDE002608F0002708F1000A128A1147270A1284
:100FEE008A11872F0A128A11002883010A128A1188
:020FFE006F2F53
:00000001FF
